{
  "_format": "hh-sol-artifact-1",
  "contractName": "FixedPoint",
  "sourceName": "@uniswap/lib/contracts/libraries/FixedPoint.sol",
  "abi": [
    {
      "inputs": [],
      "name": "Q112",
      "outputs": [
        {
          "internalType": "uint256",
          "name": "",
          "type": "uint256"
        }
      ],
      "stateMutability": "view",
      "type": "function"
    },
    {
      "inputs": [],
      "name": "RESOLUTION",
      "outputs": [
        {
          "internalType": "uint8",
          "name": "",
          "type": "uint8"
        }
      ],
      "stateMutability": "view",
      "type": "function"
    }
  ],
  "bytecode": "0x610127610052600b82828239805160001a6073146045577f4e487b7100000000000000000000000000000000000000000000000000000000600052600060045260246000fd5b30600052607381538281f3fe7300000000000000000000000000000000000000003014608060405260043610603d5760003560e01c80633bf7a83e146042578063552f888a14605c575b600080fd5b60486076565b6040516053919060a5565b60405180910390f35b60626089565b604051606d919060d8565b60405180910390f35b6e01000000000000000000000000000081565b607081565b6000819050919050565b609f81608e565b82525050565b600060208201905060b860008301846098565b92915050565b600060ff82169050919050565b60d28160be565b82525050565b600060208201905060eb600083018460cb565b9291505056fea264697066735822122019a3d3c44845daadcd7b5dee923d613dc23c1205cd57d95a1dce4bc184910e1264736f6c634300081b0033",
  "linkReferences": {},
  "deployedLinkReferences": {}
}